:03000000020D0EE0
:0C0D0E00787FE4F6D8FD75813B020D559E
:100B3400505245535320425554544F4E00544F2065
:100B4400564F54452100564F5445205245434F5269
:100B54004445442100564F54494E4720454E445382
:100B6400212100534E53004E4153004D504D43003C
:100B74004F544800434F4E47524154532100574964
:100B84004E5321004F544845525300434C4153485F
:100B9400004245545745454E2100414C4C20564F88
:100BA40054455320524553455400544F203021009E
:100BB4005741495420464F52204D41535445520009
:100BC400544F20414C4C4F5700564F54494E4720E8
:0D0BD40044415900424547494E532121003C
:1010C100022C0000022100000824000000000000A2
:0210D10000001D
:100F90007521007522017F011210D47F327E00126C
:0B0FA0000FAB7F831210D47F327E0065
:100FAB00E4FDFCD3ED9FEE6480F8EC648098501563
:100FBB00E4FBFA0BBB00010ABA03F8BBE9F50DBD64
:050FCB0000010C80DEB6
:010FD00022FE
:10109500D2857F017E00120FABD284120FABC285C1
:0610A500120FABC2842211
:0510AB00AF2F12103A06
:1010B000C2857F017E00120FABD284120FABD285A6
:0110C000220D
:0F10E6007F017E00120FABD284120FABC28422A7
:10103A00E4FEEF30E703D38001C39285D284C284F1
:10104A00EF25E0FF0EBE08EAD2847F057E00120F6C
:03105A00ABC284A2
:01105D002270
:100EA1001210957FA112103AD285E4F508F509D206
:100EB10084E52325E0F523A285E4334223C2847F20
:100EC100057E00120FAB0509E50970020508C39400
:100ED10008E508940040D8300004C2858002D2851C
:100EE1007F057E00120FABD284120FABC2841210A9
:030EF100B0AF237C
:010EF40022DB
:09105E00752E008F2F7F027E0029
:101067008E088F091210957FA012103AE508FF121B
:07107700103AAF0902103A24
:10107E008E088F091210957FA012103AE508FF1204
:07108E00103AAF0902103A0D
:1010D4008FA0D2B2C2B0C2B17F017E00120FABC2E8
:0210E400B22236
:060FD1007BFF7A0B79782A
:060FD7008B088A09890A5B
:100FDD00E4F50BF50CAB08AA09A90A850C82850B63
:100FED0083120E1F601BF5A0C2B1D2B0D2B27F0129
:100FFD007E00120FABC2B2050CE50C70D8050B804C
:01100D00D40E
:01100E0022BF
:040F4700AB07AA0644
:100F4B007C007D0A120E4C8C388D39AE02AF037CBF
:100F5B00007D0A120E4C8E368F37900000AF82EF59
:100F6B0025E02436F808E62430F9F5A0C2B1D2B05A
:100F7B00D2B27F017E00120FABC2B2A3E582640234
:040F8B00458370D951
:010F8F00223F
:100BE1002091092092062093033094F430911B2028
:100BF10091FD052FE52F7002052EE4FFFE12107EF8
:100C01001210AB7F057E00120FAB3092212092FDB6
:100C11000531E531700205307F027E0012107EAF92
:100C21003112103A1210B07F057E00120FAB3093D3
:100C3100212093FD0533E533700205327F047E00E8
:100C410012107EAF3312103A1210B07F057E0012DF
:100C51000FAB3094212094FD0535E5357002053444
:100C61007F067E0012107EAF3512103A1210B07F4F
:070C7100057E00120FAB220B
:100EF5007F38120FA47F0E120FA47F01120FA47F5B
:100F050082120FA47BFF7A0B7934120FD7120FA729
:100F15007FC4120FA47BFF7A0B7941120FD77F6430
:100F25007E00120FAB120BE17F01120FA47F81121D
:100F35000FA47BFF7A0B794A120FD77F647E0002DC
:020F45000FABF0
:10080000E4F521F522FFFE121067C200120EA112BC
:10081000105EC200120EA17530008F317F047E0081
:10082000121067C200120EA17532008F337F067E50
:1008300000121067C200120EA17534008F357F01BF
:10084000120FA47F81120FA47BFF7A0B7959120F2C
:10085000D77FC87E00120FAB7F01120FA47F8012DA
:100860000FA47BFF7A0B7967120FD7120FA77F8433
:10087000120FA47BFF7A0B796B120FD7120FA77F91
:1008800088120FA47BFF7A0B796F120FD7120FA774
:100890007F8D120FA47BFF7A0B7974120FD7120F82
:1008A000A77FC01210D47F647E00120FABAF2FAEB3
:1008B0002E120F47120FA77FC4120FA4AF31AE3014
:1008C000120F47120FA77FC9120FA4AF33AE321217
:1008D0000F47120FA77FCD120FA4AF35AE34120F02
:1008E000477F2C7E01120FAB852E24852F25853066
:1008F0002685312785322885332985342A85352B6D
:10090000E4FF1EEF25E02424F8E6FC08E6FDC3958D
:100910002DE52C6480F8EC64809840048C2C8D2D9F
:100920000FBF00010EEF64044E70D8E52D652F70E7
:1009300004E52C652E704FE52D65317004E52C65BE
:10094000306043E52D65337004E52C65326037E592
:100950002D65357004E52C6534602B120F90120F55
:10096000D1120FA77FC4120FA47BFF7A0B796712F5
:100970000FD7120FA77F14120FA47BFF7A0B798277
:10098000120FD7120FA7E52D65317004E52C6530E5
:10099000704FE52D652F7004E52C652E6043E52D25
:1009A00065337004E52C65326037E52D65357004DC
:1009B000E52C6534602B120F90120FD1120FA77F18
:1009C000C4120FA47BFF7A0B796B120FD7120FA7FB
:1009D0007F14120FA47BFF7A0B7982120FD7120FAC
:1009E000A7E52D65337004E52C6532704FE52D6564
:1009F000317004E52C65306043E52D652F7004E50A
:100A00002C652E6037E52D65357004E52C65346066
:100A10002B120F90120FD1120FA77FC3120FA47BBE
:100A2000FF7A0B796F120FD7120FA77F14120FA442
:100A30007BFF7A0B7982120FD7120FA7E52D653550
:100A40007004E52C6534704FE52D65317004E52C9C
:100A500065306043E52D65337004E52C6532603701
:100A6000E52D652F7004E52C652E602B120F90127A
:100A70000FD1120FA77FC2120FA47BFF7A0B7988C8
:100A8000120FD7120FA77F14120FA47BFF7A0B79D6
:100A900082120FD7120FA7E52245216003020B3304
:100AA0007F01120FA47F81120FA47BFF7A0B798F35
:100AB000120FD7120FA77F14120FA47BFF7A0B79A6
:100AC00095120FD7120FA7E52DB52F16E52CB52ED1
:100AD000117FC01210D47BFF7A0B7967120FD712E7
:100AE0000FA7E52DB53116E52CB530117FC41210D6
:100AF000D47BFF7A0B796B120FD7120FA7E52DB5B8
:100B00003316E52CB532117FC81210D47BFF7A0B57
:100B1000796F120FD7120FA7E52DB53516E52CB555
:100B200034117FCD1210D47BFF7A0B7974120FD75A
:030B3000120FA7FA
:010B3300229F
:100D9A00E4F534F535F532F533F530F531F52EF560
:100DAA002FFFFE12107E1210AB7F057E00120FABD2
:100DBA007F0212107EAF3112103A1210B07F057EF8
:100DCA0000120FAB1F12107EAF3312103A1210B07E
:100DDA007F057E00120FAB0F12107EAF3512103A4C
:100DEA001210B07F057E00120FAB7F01120FA47F95
:100DFA0080120FA47BFF7A0B799E120FD7120FA7CE
:100E0A007FC5120FA47BFF7A0B79AE120FD77F3200
:050E1A007E00020FAB99
:10100F007F01120FA47F80120FA47BFF7A0B79B49C
:10101F00120FD7120FA77FC4120FA47BFF7A0B7981
:0B102F00C4120FD77F647E00020FABDD
:100C7800C296C295C290C294C293C292C291E4FF36
:100C8800FE121067C200120EA112105EC200120EF0
:100C9800A17530008F317F047E00121067C20012E8
:100CA8000EA17532008F337F067E00121067C200D6
:100CB800120EA17534008F357F38120FA47F0E12E3
:100CC8000FA4120F967BFF7A0B79CD120FD7120F54
:100CD800A77FC4120FA47BFF7A0B79D8120FD77F96
:100CE800C87E00120FAB800920900E309608120DB6
:100CF8009A12100F80F23095EF209505120EF580AC
:060D0800F012080080FB60
:100D1A00020C78E493A3F8E493A34003F68001F26B
:100D2A0008DFF48029E493A3F85407240CC8C333DA
:100D3A00C4540F4420C8834004F456800146F6DFA9
:100D4A00E4800B01020408102040809010C1E47E68
:100D5A00019360BCA3FF543F30E509541FFEE4939E
:100D6A00A360010ECF54C025E060A840B8E493A365
:100D7A00FAE493A3F8E493A3C8C582C8CAC583CA90
:100D8A00F0A3C8C582C8CAC583CADFE9DEE780BE48
:0110D300001C
:100E1F00BB010CE58229F582E5833AF583E0225088
:100E2F0006E92582F8E622BBFE06E92582F8E222D2
:0D0E3F00E58229F582E5833AF583E49322EC
:100E4C00BC000BBE0029EF8DF084FFADF022E4CC8A
:100E5C00F875F008EF2FFFEE33FEEC33FCEE9DEC53
:100E6C00984005FCEE9DFE0FD5F0E9E4CEFD22ED99
:100E7C00F8F5F0EE8420D21CFEADF075F008EF2FE3
:100E8C00FFED33FD4007985006D5F0F222C398FDD4
:050E9C000FD5F0EA2271
:00000001FF
